:020000040800F2
:100000001804002001010008CD030008C503000802
:10001000C903000849010008170D0008000000008E
:10002000000000000000000000000000AD05000816
:100030004D01000800000000550400089906000862
:100040001B0100081B0100081B0100081B01000820
:100050001B0100081B0100081B0100081B01000810
:100060001B0100081B0100081B0100081B01000800
:100070001B0100081B0100081B0100081B010008F0
:100080001B0100081B0100081B0100081B010008E0
:100090001B0100081B0100081B0100081B010008D0
:1000A0001B0100081B0100081B0100081B010008C0
:1000B0001B01000861070008000000001B01000888
:1000C0001B01000800000000000000001B010008E8
:1000D00000000000A90A00081B0100080000000041
:1000E0001B0100081B0100081B010008DFF80CD0F1
:1000F00000F018F800480047390D000818040020E7
:100100000648804706480047FEE7FEE7FEE7FEE7B1
:10011000FEE7FEE7FEE7FEE7FEE7FEE79D060008D6
:10012000ED000008064C074D06E0E06840F00103D2
:1001300094E8070098471034AC42F6D3FFF7DAFF93
:10014000400D0008600D000800BFFEE7704700008A
:100150001CB54FF4A06000F073F91C208DF804006A
:1001600001208DF8050003208DF8060001208DF890
:10017000070001A800F02CF91D208DF804000220D2
:100180008DF805008DF8060001208DF8070001A804
:1001900000F01EF925208DF8040003208DF80500DD
:1001A0008DF8060001208DF8070001A800F010F975
:1001B00001210C2000F070F91020ADF800000320A0
:1001C0008DF8020010208DF8030069460A4800F0FF
:1001D00017F840F2CF2140F2CF7000F0E1FA40F280
:1001E0009D71064800F0C5FB4FF4E13000F016FCAD
:1001F00000F084FA1CBD000000080140000400402B
:100200002DE9F041024600250026002000230024AD
:10021000002791F803C00CF00F0591F803C00CF013
:10022000100CBCF1000F03D091F802C04CEA050598
:1002300091F800C0BCF1000F31D0146800202BE011
:100240004FF0010C0CFA00F3B1F800C00CEA030601
:100250009E4220D183004FF00F0C0CFA03F7BC43F1
:1002600005FA03FC4CEA040491F803C0BCF1280F22
:1002700006D14FF0010C0CFA00FCC2F814C00AE0E1
:1002800091F803C0BCF1480F05D14FF0010C0CFAF6
:1002900000FCC2F810C0401C0828D1D31460B1F88B
:1002A00000C0BCF1FF0F34DD546800202EE000F1E7
:1002B000080C4FF0010808FA0CF3B1F800C00CEA82
:1002C00003069E4221D183004FF00F0C0CFA03F776
:1002D000BC4305FA03FC4CEA040491F803C0BCF1EA
:1002E000280F05D100F1080C08FA0CF8C2F81480A8
:1002F00091F803C0BCF1480F07D100F1080C4FF092
:10030000010808FA0CF8C2F81080401C0828CED367
:100310005460BDE8F0810000F0B50A4600230024D7
:100320000021002500F00046B6F1004F02D11D4E1D
:10033000F16901E01B4E7168C0F3034583B200F41C
:100340004016B6F5401F08D121F07061154E766851
:1003500026F07066134F7E6012E000F48016B6F54A
:10036000801F06D1032606FA05F4A14341F070610F
:1003700006E0460D360103FA06F6B14341F070611E
:1003800022B1460D360103FA06F6314300F000466D
:10039000B6F1004F02D1034EF16101E0014E7160F0
:1003A000F0BD00000000014002460020D3680B4071
:1003B0000BB1012000E0002070470AB1016100E0AC
:1003C0004161704700BFFEE700BFFEE770470000D5
:1003D00070B5002100230F22C47804B3154C2468A3
:1003E00004F4E064C4F5E064210AC1F10403CA40E6
:1003F000447804FA03F184781440214309010E4C37
:100400000678A155047804F01F050124AC40057856
:100410006D11AD0005F1E025C5F8004109E0047853
:1004200004F01F050124AC40044D0678761145F810
:10043000264070BD0CED00E000E400E080E100E04B
:1004400002490143024A1160704700000000FA05AA
:100450000CED00E07047000029B1064AD269024362
:10046000044BDA6104E0034AD2698243014BDA614A
:10047000704700000010024029B1064A1269024389
:10048000044B1A6104E0034A12698243014B1A616A
:10049000704700000010024029B1064A92690243E9
:1004A000044B9A6104E0034A92698243014B9A61CA
:1004B000704700000010024029B1064AD26802438A
:1004C000044BDA6004E0034AD2688243014BDA60ED
:1004D000704700000010024030B5002100220024C7
:1004E00000232D4D6D6805F00C0121B1042905D0C4
:1004F000082923D105E0294D056022E0274D05603C
:100500001FE0254D6D6805F47012234D6D6805F4EC
:100510008034022505EB92421CB9214D55430560FC
:100520000BE01D4D6D6805F400351DB11C4D5543A4
:10053000056002E0194D5543056002E0174D056066
:1005400000BF00BF144D6D6805F0F0010909154D9D
:100550006B5C0568DD4045600F4D6D6805F4E0613A
:10056000090A104D6B5C4568DD4085600A4D6D6879
:1005700005F46051C90A0B4D6B5C4568DD40C560F0
:10058000054D6D6805F44041890B074D6B5CC568EE
:10059000B5FBF3F5056130BD0010024000127A0092
:1005A00000093D000000002010000020704710B539
:1005B00000F002F810BD00000CB500200190009082
:1005C0003348006840F480303149086000BF30484B
:1005D000006800F4003000900198401C01900098E1
:1005E00018B90198B0F5A06FF1D12948006800F45E
:1005F000003010B10120009001E000200090009830
:10060000012843D12348006840F0100021490860C8
:100610000846006820F0030008600846006840F0C3
:10062000020008601A484068194948600846406856
:1006300048600846406840F480604860084640686A
:1006400020F47C1048600846406840F4E810486098
:100650000846006840F08070086000BF0C480068E1
:1006600000F000700028F9D00948406820F003002D
:10067000074948600846406840F00200486000BFF3
:100680000348406800F00C000828F9D10CBD0000B8
:1006900000100240002002407047000010B51348CF
:1006A000006840F0010011490860084640681049A0
:1006B00008400E494860084600680E4908400B494A
:1006C00008600846006820F48020086008464068FA
:1006D00020F4FE0048604FF41F008860FFF767FFBA
:1006E0004FF000600449086010BD00000010024097
:1006F0000000FFF8FFFFF6FE08ED00E01FB5012146
:100700000420FFF7C9FE01210846FFF7A5FE0320DC
:10071000ADF80C0004208DF80F0003A90F48FFF777
:100720006FFD0020ADF800004FF6FF70ADF804003B
:100730000020ADF80600ADF8020069464FF0804099
:1007400000F01AF900231A460121880700F07FF80B
:100750000121880700F06FF81FBD0000000801406C
:1007600010B501210C4800F093F898B101210A4816
:1007700000F05EF810210948FFF716FE28B10022AC
:1007800010210648FFF719FE04E00122102103485A
:10079000FFF713FE10BD00000004004000080140F8
:1007A00030B589B005460C4601210220FFF754FE02
:1007B00001210920FFF770FE01211A48FFF7ACFD67
:1007C0002020ADF8200018208DF8230003208DF89C
:1007D000220008A91448FFF713FDADF81850ADF832
:1007E00014400020ADF81A001020ADF8160005A93D
:1007F0000E4800F0C1F87020ADF804000120ADF8FB
:1008000006000020ADF80C0001A9084800F052F8DD
:100810000821064800F0A0F80121044800F00BF878
:1008200009B030BD00081A00000C0140000400406F
:10083000CA430282704721B1028842F0010202805D
:1008400004E002884FF6FE731A4002807047F0B54C
:100850000C4615461E460021002200230189028B0A
:10086000038C4FF6F877394021434FF6FC473A4066
:1008700040F201173A434FF6DD773B404FF6FF77E2
:1008800007EA06172F433B43018102830384F0BD2F
:1008900030B50246002000230024158A05EA010332
:1008A000958905EA010413B10CB1012000E0002094
:1008B00030BD000070B5002400220023058C4FF6E7
:1008C000EF7635400584028C8388048B48F6FF75EB
:1008D0002C404FF6FF452C400D884FF6FF7606EA78
:1008E00005252C434FF6DF752A400D8906EA0515CC
:1008F0002A434D8806EA05152A43154DA84202D021
:10090000144DA8421DD14FF67F752A404D894FF6F0
:10091000FF7606EA05152A434FF6BF752A408D88F3
:1009200006EA05152A434FF6FF352B404FF2FF75B7
:100930002B408D8906EA85052B43CD8906EA85057E
:100940002B4383800483CD880587028470BD00001B
:10095000002C0140003401400A460021018B4FF277
:10096000FF7319404FF6FF7303EA02231943018313
:100970007047018770470000002202881D4B984293
:100980000ED01D4B98420BD0B0F1804F08D01B4BBE
:10099000984205D01A4B984202D01A4B984204D183
:1009A0004FF68F731A404B881A43174B984207D063
:1009B000164B984204D04FF6FF431A40CB881A4397
:1009C00002808B8883850B8803850A4B98420BD065
:1009D000094B984208D00E4B984205D00D4B9842D7
:1009E00002D00D4B984201D10B7A038601238382FA
:1009F00070470000002C014000340140000400401A
:100A000000080040000C00400010004000140040AE
:100A100000400140004401400048014010B586B04C
:100A20000446012144F20400FFF736FD1C4800F0A3
:100A300063F84FF40070ADF8140003208DF8160031
:100A400018208DF8170005A91648FFF7D9FB4FF4B9
:100A50008060ADF8140004208DF8170005A9114836
:100A6000FFF7CEFB01940020ADF80800ADF80A00B6
:100A7000ADF80C00ADF810000C20ADF80E0001A987
:100A8000074800F0D7F8012240F22551044800F051
:100A9000ABF80121024800F023F806B010BD0000B9
:100AA000003801400008014010B540F225510948C6
:100AB00000F070F860B1074800F028F9C4B20648A9
:100AC0000470007840F29D72111A0448FFF751FF3C
:100AD00010BD000000380140140000200004004058
:100AE00021B1828942F40052828104E082894DF66C
:100AF000FF731A408281704710B504462048844233
:100B000009D101218803FFF7D7FC00214FF4804071
:100B1000FFF7D2FC32E01B48844209D1012148048E
:100B2000FFF7AAFC00214FF40030FFF7A5FC25E0F9
:100B30001548844209D101218804FFF79DFC00215A
:100B40004FF48020FFF798FC18E01048844209D148
:100B50000121C804FFF790FC00214FF40020FFF7AB
:100B60008BFC0BE00A48844208D101210805FFF7FD
:100B700083FC00214FF48010FFF77EFC10BD0000C5
:100B8000003801400044004000480040004C004054
:100B90000050004070B502460024002300250020CC
:100BA00040F66A16B14200D100BFC1F3421501F010
:100BB0001F03012606FA03F3012D02D19689334063
:100BC00006E0022D02D1168A334001E0968A3340B6
:100BD0000C12012606FA04F41688344013B10CB145
:100BE000012000E0002070BDF0B50346002400267F
:100BF0000025002040F66A17B94200D100BF184610
:100C0000C1F3421401F01F06012707FA06F5012C73
:100C100001D10C3004E0022C01D1103000E014307E
:100C20001AB107682F43076002E00768AF43076007
:100C3000F0BD00002DE9F04786B005460E460024C1
:100C4000A24600BFA1460027B08900B100BF2F46D1
:100C50002C8A4CF6FF700440F08804432C82AC8947
:100C60004EF6F3100440B088318908437189084377
:100C70000443AC81AC8A4FF6FF400440B089044382
:100C8000AC8201A8FFF728FC1F48874202D1DDF89B
:100C900010A001E0DDF80CA0A88900F4004040B1EC
:100CA0000AEBCA0000EB0A1031684900B0FBF1F80A
:100CB00007E00AEBCA0000EB0A1031688900B0FBBC
:100CC000F1F86420B8FBF0F004012009642101FB75
:100CD0001089A88900F4004040B1322000EBC9001F
:100CE000B0FBF1F000F00700044308E0322000EB15
:100CF00009106421B0FBF1F000F00F0004432C81D7
:100D000006B0BDE8F0870000003801400146888841
:100D1000C0F30800704700BFFEE702E008C8121FDA
:100D200008C1002AFAD170477047002001E001C1D4
:100D3000121F002AFBD17047FFF70AFA00BFFEE737
:100D4000600D000800000020180000001A0D0008C7
:100D5000780D000818000020000400002A0D00088B
:100D60000000000001020304010203040607080951
:080D7000020406080000000067
:0400000508000101ED
:00000001FF
